:100000000C942F010C9460010C9460010C9460011D
:100010000C9460010C9460010C9460010C946001DC
:100020000C9460010C9460010C9460010C946001CC
:100030000C9460010C9460010C9460010C946001BC
:100040000C9460010C9460010C9460010C946001AC
:100050000C9460010C9460010C9460010C944204B7
:100060000C9460010C9460010C9460010C9460018C
:100070000C9460010C9460010C9460010C9460017C
:100080000C9460010C9460010C9460010C9460016C
:100090000C9460010C9460010C9460010C9460015C
:1000A0000C9460010C9460010C9460010C9460014C
:1000B0000C9460010C9460010C9460010C9460013C
:1000C0000C9460010C9460010C9460010C9460012C
:1000D0000C9460010C9460010C9460010C9460011C
:1000E0000C9460010C94CC010C94B8010C94AD01FB
:1000F0000C94A9010C9497010C94B5010C94720214
:100100000C94BE010C94C8010C9471020C94C201B1
:100110000C94DE010C9492010C940F060C94440292
:100120000C9420040C94D6010C94E8010C94D0019A
:100130000C94B1010C94E4010C94DA01000020004D
:100140002300260029002C002F00320000010000AF
:1001500003010601090100002100240027002A00F4
:100160002D003000330001010000040107010A01E5
:1001700000002200250028002B002E003100340052
:1001800002010000050108010B0105050505070531
:1001900008080808020202020A0A08080404040403
:1001A000010101010101010103030303030303032F
:1001B000040707070C0C0C0C0C0C0C0C02020202BE
:1001C00006060606060606060B0B0B0B0B0B0B0BA7
:1001D0000102102020080810204010204080020159
:1001E000020108040201010204081020408080403E
:1001F000201008040201800402018040201008043D
:1002000002010804020101020408102040800102DA
:1002100004081020408000000A0B02090C0D0E0893
:1002200007030401000000000000000000000000BF
:1002300000000000000000000000000000000000BE
:10024000000012111000000000000000000000007B
:100250000000000000000000000000000F06112454
:100260001FBECFEFD1E2DEBFCDBF00E00CBF12E07A
:10027000A0E0B2E0E0E2FFE000E00BBF02C00790C8
:100280000D92A232B107D9F722E0A2E2B2E001C09A
:100290001D92A334B207E1F711E0CFE2D1E000E014
:1002A00006C021970109802FFE010E948607CE32E9
:1002B000D10780E00807A9F70E94D1040C948E07AB
:1002C0000C940000282F30E0F901EA5EFD4F949174
:1002D000F901E053FE4F449126573E4FF901249116
:1002E000222309F435C0992311F191509231F8F489
:1002F000E92FF0E08827E058FE4F8F4F0C948607D7
:10030000B101B5019201A901AD019701B801BE018A
:10031000C201C801CC01D001D601DA019701DE018A
:10032000E401E801809180008F7780938000E22FC4
:10033000F0E0EE0FFF1FE059FE4FA591B4918FB78B
:10034000F894EC91611148C040954E234C938FBFB7
:100350000895809180008F7DE8CF80918000877F15
:10036000E4CF84B58F7784BDE2CF84B58F7DFBCF9A
:100370008091B0008F778093B000D9CF8091B0008A
:100380008F7DF9CF809190008F7780939000CFCFB1
:10039000809190008F7DF9CF80919000877FF5CF7D
:1003A0008091A0008F778093A000C1CF8091A000A2
:1003B0008F7DF9CF8091A000877FF5CF80912001BC
:1003C0008F7780932001B3CF809120018F7DF9CF6B
:1003D00080912001877FF5CF4E2BB8CFCF93DF934D
:1003E00090E0FC01E053FE4F249186579E4FFC01A4
:1003F00084918823D1F090E0880F991FFC01EA5A7C
:10040000FE4FA591B491FC01E059FE4FC591D491E6
:1004100061110EC09FB7F8948C91E22FE0958E2366
:100420008C932881E223E8839FBFDF91CF910895C9
:100430008FB7F894EC91E22BEC938FBFF6CF3FB7D8
:10044000F8948091270290912802A0912902B091FE
:100450002A0226B5A89B05C02F3F19F00196A11DC1
:10046000B11D3FBFBA2FA92F982F8827BC01CD01FE
:10047000620F711D811D911D42E0660F771F881F5D
:10048000991F4A95D1F70895AF92BF92CF92DF920C
:10049000EF92FF920F931F93CF93DF936C017B0139
:1004A0008B01040F151FEB015E01AE18BF08C017CA
:1004B000D10759F06991D601ED91FC910190F0813D
:1004C000E02DC6011995892B79F7C501DF91CF91F0
:1004D0001F910F91FF90EF90DF90CF90BF90AF9062
:1004E0000895089590E080E008958F929F92AF92D2
:1004F000BF920F931F93CF93DF93CDB7DEB7A19732
:100500000FB6F894DEBF0FBECDBF19A2423008F47B
:100510004AE08E010F5D1F4F842E912CB12CA12C2F
:10052000A50194010E946407E62FB901CA01EA30CF
:1005300044F5E05DD801EE938D01232B242B252B70
:1005400079F790E080E0109769F0FD0101900020BC
:10055000E9F73197AF014A1B5B0BBD018BE292E0DB
:100560000E944402A1960FB6F894DEBF0FBECDBF25
:10057000DF91CF911F910F91BF90AF909F908F907F
:100580000895E95CD7CFFC0101900020E9F731978D
:10059000AF01481B590BBC018BE292E00C94440262
:1005A000CF93DF93EC0160E08E810E94620161E0F5
:1005B0008E810E94620160E08E810E9462018BE860
:1005C00091E00197F1F7DF91CF910895CF92DF92FB
:1005D000EF92FF920F931F93CF93DF936C017C01F7
:1005E00087E0E80EF11CD0E0C0E0062F10E0B80173
:1005F0000C2E02C0759567950A94E2F76170F701B9
:1006000081917F010E9462012196C430D10579F762
:10061000C601DF91CF911F910F91FF90EF90DF9076
:10062000CF900C94D002CF92DF92EF92FF920F9373
:100630001F93CF93DF93EC01F62E642F8C810E94E1
:1006400062018D818F3F19F060E00E9462010F2DE1
:1006500010E08F8584FF25C06E0187E0C80ED11C95
:10066000F12CE12CB8010E2C02C0759567950A9407
:10067000E2F76170F60181916F010E946201FFEF64
:10068000EF1AFF0A88E0E816F10461F7CE01DF9166
:10069000CF911F910F91FF90EF90DF90CF900C942E
:1006A000D002B80184E0759567958A95E1F7CE018F
:1006B0000E94E6026F2DCE01DF91CF911F910F9125
:1006C000FF90EF90DF90CF900C94E60240E0682F0F
:1006D0008BE292E00C941303CF93DF93613029F007
:1006E00090913A02986090933A0260933E02109281
:1006F0003F0290E49093400280934102805C80939B
:10070000420261E080912F020E94EE01809130024E
:100710008F3F19F061E00E94EE0161E080913102AB
:100720000E94EE01CBE2D2E09E012B52324080913A
:100730003A0284FD0BC084E090E021962817390727
:1007400044F461E08E810E94EE01EECF88E090E0FB
:10075000F4CF8BE39DE00197F1F760E080912F02E9
:100760000E94620160E0809131020E9462018091EA
:1007700030028F3F19F060E00E94620180913A02DE
:1007800084FD39C063E08BE292E00E94E602CBE494
:10079000D6E4CE010197F1F763E08BE292E00E948C
:1007A000E6022197F1F763E08BE292E00E94E60215
:1007B00083E592E00197F1F762E08BE292E00E941C
:1007C000E60280913A0280620E94660384E0809390
:1007D0003B028CE00E94660381E00E9466038BE38B
:1007E0009FE10197F1F782E080933C0286E0DF9180
:1007F000CF910C94660380620E9466038BE496E4BA
:100800000197F1F780913A0280620E94660383E5C6
:1008100092E00197F1F780913A0280620E946603AC
:10082000D0CF90913E02691710F06FEF690FE62F5D
:10083000F0E0E55DFD4F9489890F80680C946603B4
:1008400041E00E94130381E090E00895CF92DF928F
:10085000EF92FF926B017C0141E06DE28BE292E04E
:100860000E94130366277727CB016C197D098E0937
:100870009F094AE00E9475020196FF90EF90DF9079
:10088000CF9008951F920F920FB60F9211242F93BD
:100890003F938F939F93AF93BF9380912302909147
:1008A0002402A0912502B09126023091220223E079
:1008B000230F2D3758F50196A11DB11D209322025B
:1008C0008093230290932402A0932502B0932602E2
:1008D0008091270290912802A0912902B0912A02CA
:1008E0000196A11DB11D8093270290932802A09329
:1008F0002902B0932A02BF91AF919F918F913F91AE
:100900002F910F900FBE0F901F90189526E8230F80
:100910000296A11DB11DD2CFCF92DF92EF92FF922E
:100920000F931F93E82FF92F05C0015011092109DA
:10093000310961F1908196239417B9F305C00150F4
:1009400011092109310911F1908196239413F7CFF0
:10095000C12CD12CE12CF12C0AC08FEFC81AD80A77
:10096000E80AF80A0C151D052E053F0579F080816F
:100970008623841791F36C2D7D2D8E2D9F2D1F9135
:100980000F91FF90EF90DF90CF90089560E070E0BE
:1009900080E090E01F910F91FF90EF90DF90CF905B
:1009A0000895789484B5826084BD84B5816084BDE7
:1009B00085B5826085BD85B5816085BD80916E00FD
:1009C000816080936E00109281008091810082602E
:1009D000809381008091810081608093810080916B
:1009E00080008160809380008091B100846080935A
:1009F000B1008091B00081608093B000809191003F
:100A00008260809391008091910081608093910039
:100A1000809190008160809390008091A10082601D
:100A20008093A1008091A10081608093A1008091BA
:100A3000A00081608093A00080912101826080935A
:100A40002101809121018160809321018091200109
:100A500081608093200180917A00846080937A0085
:100A600080917A00826080937A0080917A00816020
:100A700080937A0080917A00806880937A00109247
:100A8000C10061E08DE00E94EE0161E088E00E941B
:100A9000EE0160E089E00E94EE0160E088E20E94E1
:100AA000EE0160E08CE20E94EE0160E08AE20E94CA
:100AB000EE0160E08EE20E94EE0164E084E10E94BB
:100AC0006C0363E085E00E9411048CE092E00E94D8
:100AD000C30220E4322EC9EDD1E033E9E32E31E048
:100AE000F32E40E0C42E40E0D42E62E08AE00E9463
:100AF000110480917B00877F80937B0030927C0083
:100B000080917A00806480937A0080917A0086FDDB
:100B1000FCCF9091780080917900382F292FB9016E
:100B2000032E000C880B990B37FF75C00E9426041A
:100B300061E08DE00E9462010E941F024B015C0196
:100B400094E6492E512C612C712C0E941F026819C9
:100B500079098A099B09683E734081059105A8F3CC
:100B600021E0421A51086108710888EE880E83E07E
:100B7000981EA11CB11C411451046104710429F791
:100B800060E08DE00E946201FE016491F7018491B2
:100B9000E82FF0E0EE0FFF1FE45CFE4F859194918B
:100BA00000E412E42FE030E0462F0E948C042B0179
:100BB0003C01411451046104710439F0FFEF4F1AF4
:100BC0005F0A6F0A7F0A2FE0722263E082E00E94D0
:100BD000110488E192E00E94C30263E082E00E9477
:100BE0001104C301B2010E94D6062DEC3CEC48E68C
:100BF00052E40E942E060E94A0064AE00E9475025E
:100C00008DE192E00E94C302C114D10409F46DCFBA
:100C10000E9400006ACF4AE00E94750289CFEBE291
:100C2000F2E01382128284E092E09183808380E17B
:100C300084838FEF858381E1868387E1878389E1E0
:100C400080878BE181878DE18287138614861586E4
:100C50001686178661E080E10C946C030E944206C0
:100C60000C942A070E94230758F00E941C0740F0AA
:100C700029F45F3F29F00C94130751110C945E077F
:100C80000C9419070E943B0768F39923B1F355238D
:100C900091F3951B550BBB27AA276217730784078F
:100CA00038F09F5F5F4F220F331F441FAA1FA9F325
:100CB00035D00E2E3AF0E0E832D091505040E69513
:100CC000001CCAF72BD0FE2F29D0660F771F881F74
:100CD000BB1F261737074807AB07B0E809F0BB0B67
:100CE000802DBF01FF2793585F4F3AF09E3F51057B
:100CF00078F00C9413070C945E075F3FE4F3983E82
:100D0000D4F3869577956795B795F7959F5FC9F763
:100D1000880F911D9695879597F90895E1E0660FE4
:100D2000771F881FBB1F621773078407BA0720F05D
:100D3000621B730B840BBA0BEE1F88F7E0950895C6
:100D40000E94A7066894B1110C945E0708950E9452
:100D5000430788F09F5798F0B92F9927B751B0F003
:100D6000E1F0660F771F881F991F1AF0BA95C9F72F
:100D700014C0B13091F00E945D07B1E008950C9469
:100D80005D07672F782F8827B85F39F0B93FCCF31C
:100D9000869577956795B395D9F73EF490958095AC
:100DA000709561957F4F8F4F9F4F0895E89409C0CC
:100DB00097FB3EF490958095709561957F4F8F4F8E
:100DC0009F4F9923A9F0F92F96E9BB279395F695A4
:100DD000879577956795B795F111F8CFFAF4BB0F22
:100DE00011F460FF1BC06F5F7F4F8F4F9F4F16C086
:100DF000882311F096E911C0772321F09EE8872F10
:100E0000762F05C0662371F096E8862F70E060E0CB
:100E10002AF09A95660F771F881FDAF7880F969544
:100E2000879597F9089597F99F6780E870E060E0EB
:100E300008959FEF80EC089500240A941616170673
:100E400018060906089500240A94121613061406BB
:100E500005060895092E0394000C11F4882352F01E
:100E6000BB0F40F4BF2B11F460FF04C06F5F7F4FD6
:100E70008F4F9F4F089557FD9058440F551F59F0BD
:100E80005F3F71F04795880F97FB991F61F09F3F77
:100E900079F087950895121613061406551FF2CFA0
:100EA0004695F1DF08C0161617061806991FF1CFF0
:100EB00086957105610508940895E894BB27662717
:100EC0007727CB0197F90895A1E21A2EAA1BBB1B25
:100ED000FD010DC0AA1FBB1FEE1FFF1FA217B30706
:100EE000E407F50720F0A21BB30BE40BF50B661F1C
:100EF000771F881F991F1A9469F7609570958095E0
:100F000090959B01AC01BD01CF010895EE0FFF1F2D
:100F1000881F8BBF0790F691E02D1994F894FFCFAE
:100F200000000000200444027202710268656C6CCB
:100F30006F2C204B616E67002020202000206D6305
:020F40006D0042
:00000001FF
